{
    "contractName": "MerkleDistributor",
    "abi": [
        {
            "inputs": [
                {
                    "internalType": "address",
                    "name": "token_",
                    "type": "address"
                },
                {
                    "internalType": "bytes32",
                    "name": "merkleRoot_",
                    "type": "bytes32"
                }
            ],
            "stateMutability": "nonpayable",
            "type": "constructor"
        },
        {
            "anonymous": false,
            "inputs": [
                {
                    "indexed": false,
                    "internalType": "uint256",
                    "name": "index",
                    "type": "uint256"
                },
                {
                    "indexed": false,
                    "internalType": "address",
                    "name": "account",
                    "type": "address"
                },
                {
                    "indexed": false,
                    "internalType": "uint256",
                    "name": "amount",
                    "type": "uint256"
                }
            ],
            "name": "Claimed",
            "type": "event"
        },
        {
            "inputs": [
                {
                    "internalType": "uint256",
                    "name": "index",
                    "type": "uint256"
                },
                {
                    "internalType": "address",
                    "name": "account",
                    "type": "address"
                },
                {
                    "internalType": "uint256",
                    "name": "amount",
                    "type": "uint256"
                },
                {
                    "internalType": "bytes32[]",
                    "name": "merkleProof",
                    "type": "bytes32[]"
                }
            ],
            "name": "claim",
            "outputs": [],
            "stateMutability": "nonpayable",
            "type": "function"
        },
        {
            "inputs": [
                {
                    "internalType": "uint256",
                    "name": "index",
                    "type": "uint256"
                }
            ],
            "name": "isClaimed",
            "outputs": [
                {
                    "internalType": "bool",
                    "name": "",
                    "type": "bool"
                }
            ],
            "stateMutability": "view",
            "type": "function"
        },
        {
            "inputs": [],
            "name": "merkleRoot",
            "outputs": [
                {
                    "internalType": "bytes32",
                    "name": "",
                    "type": "bytes32"
                }
            ],
            "stateMutability": "view",
            "type": "function"
        },
        {
            "inputs": [],
            "name": "token",
            "outputs": [
                {
                    "internalType": "address",
                    "name": "",
                    "type": "address"
                }
            ],
            "stateMutability": "view",
            "type": "function"
        }
    ],
    "bytecode": "60c060405234801561001057600080fd5b506040516107af3803806107af83398101604081905261002f9161004a565b60609190911b6001600160601b03191660805260a052610082565b6000806040838503121561005c578182fd5b82516001600160a01b0381168114610072578283fd5b6020939093015192949293505050565b60805160601c60a0516106f76100b86000396000818161014c015261029d0152600081816101b3015261030201526106f76000f3fe608060405234801561001057600080fd5b506004361061004c5760003560e01c80632e7ba6ef146100515780632eb4a7ab146100665780639e34070f14610084578063fc0c546a146100a4575b600080fd5b61006461005f36600461045c565b6100b9565b005b61006e61029b565b60405161007b9190610568565b60405180910390f35b610097610092366004610444565b6102bf565b60405161007b919061055d565b6100ac610300565b60405161007b9190610530565b6100c2856102bf565b156100e85760405162461bcd60e51b81526004016100df90610571565b60405180910390fd5b60008585856040516020016100ff93929190610508565b6040516020818303038152906040528051906020012090506101778383808060200260200160405190810160405280939291908181526020018383602002808284376000920191909152507f000000000000000000000000000000000000000000000000000000000000000092508591506103249050565b6101935760405162461bcd60e51b81526004016100df906105b9565b61019c866103df565b60405163a9059cbb60e01b81526001600160a01b037f0000000000000000000000000000000000000000000000000000000000000000169063a9059cbb906101ea9088908890600401610544565b602060405180830381600087803b15801561020457600080fd5b505af1158015610218573d6000803e3d6000fd5b505050506040513d601f19601f8201168201806040525081019061023c919061041d565b6102585760405162461bcd60e51b81526004016100df906105fa565b7f4ec90e965519d92681267467f775ada5bd214aa92c0dc93d90a5e880ce9ed02686868660405161028b9392919061063d565b60405180910390a1505050505050565b7f000000000000000000000000000000000000000000000000000000000000000081565b6000806102ce6101008461065c565b905060006102de61010085610697565b60009283526020839052604090922054600190921b9182169091149392505050565b7f000000000000000000000000000000000000000000000000000000000000000081565b600081815b85518110156103d457600086828151811061035457634e487b7160e01b600052603260045260246000fd5b602002602001015190508083116103955782816040516020016103789291906104fa565b6040516020818303038152906040528051906020012092506103c1565b80836040516020016103a89291906104fa565b6040516020818303038152906040528051906020012092505b50806103cc81610670565b915050610329565b509092149392505050565b60006103ed6101008361065c565b905060006103fd61010084610697565b6000928352602083905260409092208054600190931b9092179091555050565b60006020828403121561042e578081fd5b8151801515811461043d578182fd5b9392505050565b600060208284031215610455578081fd5b5035919050565b600080600080600060808688031215610473578081fd5b8535945060208601356001600160a01b0381168114610490578182fd5b935060408601359250606086013567ffffffffffffffff808211156104b3578283fd5b818801915088601f8301126104c6578283fd5b8135818111156104d4578384fd5b89602080830285010111156104e7578384fd5b9699959850939650602001949392505050565b918252602082015260400190565b92835260609190911b6bffffffffffffffffffffffff19166020830152603482015260540190565b6001600160a01b0391909116815260200190565b6001600160a01b03929092168252602082015260400190565b901515815260200190565b90815260200190565b60208082526028908201527f4d65726b6c654469737472696275746f723a2044726f7020616c72656164792060408201526731b630b4b6b2b21760c11b606082015260800190565b60208082526021908201527f4d65726b6c654469737472696275746f723a20496e76616c69642070726f6f666040820152601760f91b606082015260800190565b60208082526023908201527f4d65726b6c654469737472696275746f723a205472616e73666572206661696c60408201526232b21760e91b606082015260800190565b9283526001600160a01b03919091166020830152604082015260600190565b60008261066b5761066b6106ab565b500490565b600060001982141561069057634e487b7160e01b81526011600452602481fd5b5060010190565b6000826106a6576106a66106ab565b500690565b634e487b7160e01b600052601260045260246000fdfea264697066735822122009997ce6ff64b83d00d6eb266957f2f6234a5cab30f3efb70c0bd8538e7ee8d664736f6c63430008010033",
    "sourcePath": "/home/null/Desktop/merkle-airdrop/contracts/MerkleAirdrop.sol",
    "compiler": {
        "name": "solc",
        "version": "0.8.1+commit.df193b15"
    },
    "functionHashes": {
        "claim(uint256,address,uint256,bytes32[])": "2e7ba6ef",
        "isClaimed(uint256)": "9e34070f",
        "merkleRoot()": "2eb4a7ab",
        "token()": "fc0c546a"
    },
    "gasEstimates": {
        "creation": {
            "codeDepositCost": "356600",
            "executionCost": "infinite",
            "totalCost": "infinite"
        },
        "external": {
            "claim(uint256,address,uint256,bytes32[])": "infinite",
            "isClaimed(uint256)": "1378",
            "merkleRoot()": "infinite",
            "token()": "infinite"
        },
        "internal": {
            "_setClaimed(uint256)": "21055"
        }
    }
}